:020000040000FA
:100000000C9497000C94BF000C94BF000C94BF009C
:100010000C94BF000C94BF000C94BF000C94BF0064
:100020000C94BF000C94BF000C946B040C94E90476
:100030000C94BF000C94BF000C94BF000C94BF0044
:100040000C94BF000C94BF000C94BF000C94BF0034
:100050000C94BF000C94BF000C94BF000C942104BE
:100060000C94BF000C94BF000C94BF000C94BF0014
:100070000C94BF000C94BF000C94BF000C94BF0004
:100080000C94BF000C94BF000C94BF000C94BF00F4
:100090000C94BF000C94BF000C94BF000C94BF00E4
:1000A0000C94BF000C94BF000C94BF00080B00021E
:1000B0000202000009040000010202000005240001
:1000C0001001052401010104240206052406000193
:1000D0000705810310004009040100020A00000026
:1000E00007050202400000070583024000000403E8
:1000F000090412010002EF0201404F1B06920001A9
:1001000001020301537061726B46756E005370619A
:10011000726B46756E2050726F204D6963726F006E
:10012000070605040100080A0B0C0D091B07112422
:100130001FBECFEFDAE0DEBFCDBF11E0A0E0B1E03F
:10014000E2E0F3E102C005900D92A435B107D9F7C2
:1001500022E0A4E5B1E001C01D92A332B207E1F7AD
:1001600010E0C7E9D0E004C02197FE010E947909A0
:10017000C639D107C9F70E9497070C947F090C94E0
:100180000000FC018091C601882311F13FB7F8946B
:1001900082E08093E9002091F200822F90E018160F
:1001A000190614F481E090E0882339F0289844E699
:1001B0004093C5014091F1004083222339F0209102
:1001C000F200211103C02BE62093E8003FBF089501
:1001D0008FEF9FEF0895CF93DF931F92CDB7DEB7D8
:1001E0006983DC01ED91FC910280F381E02D41E017
:1001F00050E0BE016F5F7F4F09950F90DF91CF9167
:100200000895CF93DF931F92CDB7DEB7FC018485AD
:10021000958597FD08C02FEF3FEF358724870F9016
:10022000DF91CF910895CE0101960E94C100019700
:1002300019F4898190E0F3CF8FEF9FEFF0CF0F9308
:100240001F93CF93DF931F92CDB7DEB78C01FC01D4
:100250008485958597FF0BC0CE0101960E94C10051
:10026000019771F4898190E0F80195878487F801FE
:10027000848595850F90DF91CF911F910F910895FF
:100280008FEF9FEFF1CFFC018485958597FD0BC023
:100290009FB7F89482E08093E9008091F2009FBFBD
:1002A00090E0019608959FB7F89482E08093E9006A
:1002B0008091F2009FBF90E008953FB7F89480913D
:1002C000C1019091C201A091C301B091C40126B5B2
:1002D000A89B05C02F3F19F00196A11DB11D3FBF7E
:1002E000BA2FA92F982F8827BC01CD01620F711D4D
:1002F000811D911D42E0660F771F881F991F4A9547
:10030000D1F70895CF92DF92EF92FF920E945D01A4
:100310006B017C010E945D016C197D098E099F09AA
:10032000683E734081059105A8F3FF90EF90DF9040
:10033000CF9008958093E9008091F200882319F00E
:100340008AE38093E800089583E00C949A01409139
:100350006201509163012091600130916101421767
:100360005307B4F49091E8009570E1F39091E800A0
:1003700092FD19C08093F100809162019091630118
:1003800001968F739927892B19F48EEF8093E800DB
:100390008091620190916301019690936301809333
:1003A000620181E0089580E00895EF92FF920F933B
:1003B0001F93CF93DF93F82E192FE62E042F81E0A1
:1003C000860F880F0E94A70183E00E94A701CF2D0E
:1003D000D12FEC0EFD2EF11CCE15DF05B9F007FF75
:1003E00013C0FE0184910E94A701182F80E00E9493
:1003F000A701812321968111EFCFDF91CF911F912A
:100400000F91FF90EF9008958881EDCF81E0F5CFB7
:10041000DF92EF92FF920F931F93CF93DF93D82E2B
:100420008A01EB017B01E40EF51ECE15DF0559F0C4
:10043000D7FE12C0FE0184910E94A701219681116E
:10044000F4CF0FEF1FEFC801DF91CF911F910F91F4
:10045000FF90EF90DF9008958881EECF2FB7F8944A
:1004600087708093E9009091E800892F807295FF52
:1004700004C09091F20080E4891B2FBF089583E0AF
:100480000E942E0290E008957F928F929F92AF92E9
:10049000BF92CF92DF92EF92FF920F931F93CF9371
:1004A000DF93C82E8B017A018091C601811110C0A3
:1004B0008FEF9FEFDF91CF911F910F91FF90EF9002
:1004C000DF90CF90BF90AF909F908F907F900895D6
:1004D0008091660180FF05C08091E000826080937A
:1004E000E000CE2DDF2DD12C8AEFB82E8C2D877019
:1004F000982E8C2D8072882E8C2D8074782E9AE305
:10050000A92E209719F4DD2009F44EC08C2D0E94ED
:100510002E02811106C0BA94BB2051F20E948201C2
:10052000F0CF8C171D0611F00CF08C2F9FB7F894AC
:100530009092E9002091E80025FD02C09FBFE1CF25
:10054000282F30E0C21BD30B882029F08150A0F067
:100550001092F100FBCFF801C7FC0AC0815050F0A7
:1005600041914093F100FACF44914093F1003196CC
:100570008150D0F7020F131FDD2021F0A092E80078
:10058000D12CDCCF8091E80085FD07C0A092E80067
:10059000DD24D394209791F2F3CF209779F677203A
:1005A00069F2A092E800CACF5D9884E68093650165
:1005B000C70180CFCF93DF93EC0180910C0188239A
:1005C00031F083E00E9444021816190634F081E0ED
:1005D00090E09B838A8380E090E0DF91CF91089543
:1005E000615030F02091F100FC0120830196F8CF9A
:1005F000289884E68093C50108958091580181115F
:100600000DC082E08093540184E0809355011092E4
:1006100057011092560181E08093580184E591E0E2
:1006200008950F931F93CF93DF931F92CDB7DEB73B
:1006300082E0898342E450E06CEA70E080E80E9446
:1006400008020E94FD02DC0112960D911C91011519
:10065000110589F0D801ED91FC910280F381E02D24
:10066000BE016F5F7F4FC801099597FD04C0F80177
:1006700000851185ECCF89810F90DF91CF911F917B
:100680000F91089590E080E0089580E008950F9321
:100690001F93CF93DF93CDB7DEB7C456D1090FB602
:1006A000F894DEBF0FBECDBFFC01DB019C919E5FC5
:1006B0009C939E01295F3F4F8AE5D9011D928A953F
:1006C000E9F788E089838BE08A8322E02C8391E03C
:1006D0009D839E8339E0398764E06A879E879F8780
:1006E0003A8B44E24B8B9C8BA0E0B1E0BE8BAD8B90
:1006F00009E010E0188F0F8B998F3B8F6C8F2F8F35
:1007000098A353E059A387E08CA34DA39EA3B8A759
:10071000AFA3A1E4B0E0BAA7A9A786E08BA74CA736
:100720002DA79EA79FA789AB4AAB2BAB2CAB2DABBC
:100730003FAB48AF59AF9AAF5BAF9CAF2DAF9EAF09
:1007400021963FAF219722964FAF229723965FAF16
:10075000239724962FAF249725966FAF259726963B
:100760009FAF269727969FAF279728969FAF2897EA
:100770002A963FAF2A9745E02B964FAF2B972D96A1
:100780002FAF2D9760E470E02F967FAF6EAF2F975D
:1007900063964FAF639785E264968FAF64976596D3
:1007A0009FAF659766969FAF669767969FAF67976F
:1007B00068963FAF689769964FAF69976B962FAF72
:1007C0006B976D967FAF6EAF6D97A1964FAFA19768
:1007D000A2968FAFA297A3969FAFA397A4969FAF21
:1007E000A497A5965FAFA59792819B839B879F5FF8
:1007F0009A8F9D8F83812C968FAF2C978F5F806807
:100800006A968FAF6A9744E650E0BE016F5F7F4FF4
:1008100080E00E940802CC59DF4F0FB6F894DEBF8B
:100820000FBECDBFDF91CF911F910F91089584E04E
:10083000EEE4F1E0DB0101900D928A95E1F784E0AE
:1008400008951F920F920FB60F9211242F933F938A
:100850008F939F93AF93BF938091BD019091BE0101
:10086000A091BF01B091C0013091BC0123E0230FE2
:100870002D3758F50196A11DB11D2093BC01809321
:10088000BD019093BE01A093BF01B093C0018091C0
:10089000C1019091C201A091C301B091C401019620
:1008A000A11DB11D8093C1019093C201A093C3010A
:1008B000B093C401BF91AF919F918F913F912F91C0
:1008C0000F900FBE0F901F90189526E8230F0296E9
:1008D000A11DB11DD2CF1F920F920FB60F921124FE
:1008E0002F933F934F935F936F937F938F939F9338
:1008F000AF93BF93CF93EF93FF93C091E1008091AB
:10090000E100837F8093E100C3FF0FC01092E900F4
:1009100081E08093EB001092EC0082E38093ED0085
:100920001092C60188E08093F000C2FF1BC083E0F4
:100930000E949A0180916501882341F080916501B0
:10094000815080936501811101C05D9A8091C5013C
:10095000882341F08091C50181508093C5018111A8
:1009600001C0289AC4FF23C08091E2008E7E81607E
:100970008093E2008091E1008F7E8093E10080917E
:1009800066018E7E806180936601FF91EF91CF9129
:10099000BF91AF919F918F917F916F915F914F9197
:1009A0003F912F910F900FBE0F901F901895C0FF91
:1009B000ECCF8091E2008E7E80618093E200809196
:1009C000E1008E7E8093E100809166018E7E8160E1
:1009D000DACF1F920F920FB60F921124CF92DF92AF
:1009E000EF92FF920F931F932F933F934F935F9339
:1009F0006F937F938F939F93AF93BF93EF93FF93E7
:100A0000CF93DF93CDB7DEB76C97DEBFCDBF10922B
:100A1000E9008091E80083FF25C068E0CE0145969B
:100A20000E94F00282EF8093E8008D8987FF39C031
:100A30009091E80090FFFCCF982F907609F034C198
:100A40009E894F89588D2F89F88C911131C080383B
:100A500061F5809167018093F1001092F1008EEFB3
:100A60008093E8006C960FB6F894DEBF0FBECDBF42
:100A7000DF91CF91FF91EF91BF91AF919F918F91B6
:100A80007F916F915F914F913F912F911F910F91A6
:100A9000FF90EF90DF90CF900F900FBE0F901F90C0
:100AA00018959EEF9093E800C7CF1092F100D5CF34
:100AB000913059F48111D3CF4130510581F68091A5
:100AC00067018D7F80936701CACF933049F481110C
:100AD000C6CF4130510519F6809167018260F2CF8F
:100AE000953041F48091E80080FFFCCF206820938E
:100AF000E300B5CF963009F0A9C00B8D1C8D22E024
:100B00001092E9001092630110926201F2122EC05D
:100B100010926101109260010E9411031F8299E0FE
:100B20009983FA8291E09E8390EA98879AEF998759
:100B30002091620130916301275F3F4F3C832B83FB
:100B40008D831092E900109263011092620110935C
:100B500061010093600149E050E0BE016F5F7F4F8B
:100B600080E00E9408020E94110379CF1093610176
:100B7000009360010E94FD02DC0112960D911C9110
:100B80000115110509F451C1D801ED91FC910480C2
:100B9000F581E02DBE016B5E7F4FC801099500977E
:100BA00009F03EC1F80100851185EACFF3E0FF129C
:100BB0000EC08F89882309F440C0823061F440E878
:100BC00062E18DE091E00E94D501811148CF81E280
:100BD0008093EB0047CF813029F440E868E084E05F
:100BE00091E0F1CF833099F70E94FD02DC0112966B
:100BF000ED90FC908E010F5F1F4F6801E114F1042E
:100C000079F0D701ED91FC910680F781E02DB801D4
:100C1000C7010995080F111DF701E084F184EECF9B
:100C2000D8011C92F60101900020E9F73197BF012D
:100C30006C197D0940E0C601C6CF6EEE70E0FB0185
:100C4000449150E080E80E94080209CF973009F4EF
:100C5000BECF983021F481E08093F10000CF99302D
:100C600009F0FDCE837009F0B2CFEEE0F1E081E053
:100C700031E096E32191222371F08093E9003093D3
:100C8000EB00DF0111972C912093EC009093ED0085
:100C90008F5F873079F78EE78093EA001092EA0041
:100CA0008F898093C601DBCE8B8D9C8D1092E900DD
:100CB0001092630110926201909361018093600130
:100CC000898D811192C08E899D89913A49F4813232
:100CD00009F07DCF47E050E065E071E080E0B3CF00
:100CE000913209F074CF833269F48F89988DB0E026
:100CF000A0E08093000190930101A0930201B093C2
:100D00000301ADCE803269F48091E80082FFFCCF10
:100D100067E085E091E00E94F0028BEF8093E800AD
:100D20009ECE823209F09BCE8F8980930C01EEEF2C
:100D3000FFE7859194918B3F9C4D51F1E0E0F8E005
:100D40008091050190910601A0910701B0910801E1
:100D5000803B9440A105B105F1F480910C0180FD28
:100D60001AC0EE3F8AE0F80789F587E797E7918395
:100D70008083809160008093640188E19BE00FB6DE
:100D8000F894A895809360000FBE9093600067CEA2
:100D9000EEEFFAE0D5CF808191818737974709F050
:100DA0005ECEA895809160008861809360008091FC
:100DB000640180936000EE3F2AE0F20789F08091A1
:100DC000FE0A9091FF0A9183808349CE80819181B0
:100DD0008737980751F29093FF0A8093FE0AC5CF98
:100DE0001092FF0A1092FE0A3ACE0E94FD02DC0128
:100DF00012960D911C910115110509F4E8CED80148
:100E0000ED91FC910190F081E02DBE016B5E7F4F72
:100E1000C8010995811123CEF80100851185EBCF1A
:100E2000181619060CF41BCED2CEF1E0FF12BECE7E
:100E300062EF70E004CFCF93DF931092CA0110925B
:100E4000C90188EE93E0A0E0B0E08093CB019093DD
:100E5000CC01A093CD01B093CE0184E391E09093B7
:100E6000C8018093C7018FEF9FEF9093D4018093C7
:100E7000D30182E080931B0280931C0281E292E006
:100E800090931E0280931D021092200210921F0266
:100E900086E491E0909318028093170280E8809393
:100EA000210281E8809322020E94FD02FC018181DF
:100EB00090911B02482F490F5527551F4830510567
:100EC0009CF5A281B381109709F527E132E03383C5
:100ED000228320812093190280931A0280911C02A0
:100EE000820F808320911D02A22FB0911E028A2FB3
:100EF000821B8917C8F481813D91C82FD0E0C35F60
:100F0000DE4F38838F5F8183F2CFD90118962D9100
:100F10003C91199721153105C1F727E132E0199667
:100F20003C932E931897D5CFDF91CF910895CF930F
:100F3000DF93CDB7DEB728970FB6F894DEBF0FBEAC
:100F4000CDBF789484B5826084BD84B5816084BD52
:100F500085B5826085BD85B5816085BD80916E0057
:100F6000816080936E001092810080918100826088
:100F700080938100809181008160809381008091C5
:100F800080008160809380008091910082608093D6
:100F900091008091910081608093910080919000F8
:100FA0008160809390008091C10084608093C10033
:100FB0008091C10082608093C1008091C1008160F6
:100FC0008093C1008091C30081608093C3008091B1
:100FD000C00082608093C0008091C20081608093D5
:100FE000C20080917A00846080937A0080917A00B8
:100FF000826080937A0080917A00816080937A0089
:1010000080917A00806880937A001092C6011092D5
:101010006701109266018091D70081608093D700AC
:1010200080EA8093D80089B5806189BD89B58260E6
:1010300089BD09B400FEFDCF0E9482018091D800D5
:101040008F7C80618093D8008091E000807F8093C6
:10105000E0008091E1008E7E8093E1008DE080933E
:10106000E200559A209A22242A9443E0342E412CFF
:10107000512C82E291E09E838D8388E6882E81E068
:10108000982E90EAA92E91E0B92E2EEAC22E21E0E8
:10109000D22E32E9632E31E0732EA6E7B1E0B88795
:1010A000AF83F12CE12CAD81BE81EC911296BE8311
:1010B000AD83E23108F0E251F0E0E05EFE4FE491F2
:1010C00090917B008E2F880F880F80729F7D892BD7
:1010D00080937B00E770E064E0937C0080917A006D
:1010E000806480937A0080917A0086FDFCCF009125
:1010F000780010917900F601118300839801A1E82E
:10110000BFEF0E946A09A20191010E941A092158A9
:101110003F4F4F4F5F4FD5012D933C93F30180819B
:101120009181081B190B17FF03C011950195110937
:101130000B3011058CF02FB7F8948091BD01909180
:10114000BE01A091BF01B091C0012FBFEF81F88512
:1011500080839183A283B3832FB7F8948091BD01DC
:101160009091BE01A091BF01B091C0012FBFEF814E
:10117000F8854191519161917191F887EF83841BBA
:10118000950BA60BB70B8C329140A105B10508F069
:101190004EC021E02093040180910401882359F17D
:1011A000D5010D911C91F4018081918180179107E7
:1011B00011F1F701EC5EFE4F8081FBE0F98321EB3A
:1011C0002A838B830C8380911A0244E050E0BE0195
:1011D0006F5F7F4F8F5F0E94440280911A028F5F82
:1011E0000E949A01D6018D919C91F3019183808395
:1011F000D4010D931C93B2E08B0E911CE2E0AE0E75
:10120000B11CF2E0CF0ED11C22E0620E711C82E014
:10121000E80EF11C9EE0E916F10409F044CFA0E0CD
:10122000B0E0AB2B09F425CF0E94000022CF109232
:101230000401B2CF052E97FB1EF400940E943109E1
:1012400057FD07D00E94390907FC03D04EF40C94D7
:10125000310950954095309521953F4F4F4F5F4F45
:10126000089590958095709561957F4F8F4F9F4F12
:101270000895A1E21A2EAA1BBB1BFD010DC0AA1FD7
:10128000BB1FEE1FFF1FA217B307E407F50720F0EF
:10129000A21BB30BE40BF50B661F771F881F991F6A
:1012A0001A9469F760957095809590959B01AC01B3
:1012B000BD01CF010895A29FB001B39FC001A39FBC
:1012C000700D811D1124911DB29F700D811D11247F
:1012D000911D08950E945B09332312F48A1B9B0B16
:1012E0000C9474090E945B09B7FF0895821B930B4D
:1012F0000895EE0FFF1F0590F491E02D0994F894E6
:10130000FFCFFFFFFFFF0100E10000000000000031
:10131000C1808100000002000300040005000600F7
:1013200020001A001A0019001800120013001400FF
:10133000150000000000EB00DA023F02A4014301A7
:1013400001011F0100000000450347034203170489
:061350004D494449000074
:1070000055C000006EC000006CC000006AC00000E7
:1070100068C0000066C0000064C0000062C00000DC
:1070200060C000005EC00000FCC400005AC0000048
:1070300058C0000056C0000054C0000052C00000FC
:1070400050C000005DC000004CC000004AC00000FD
:1070500048C0000046C0000044C0000042C000001C
:1070600040C000003EC000003CC000003AC000002C
:1070700038C0000036C0000034C0000032C000003C
:1070800030C000002EC000002CC000002AC000004C
:1070900028C0000026C0000024C0000022C000005C
:1070A00020C000001EC000001CC0000011241FBE34
:1070B000CFEFDAE0DEBFCDBF11E0A0E0B1E0E6E463
:1070C000FFE702C005900D92A43BB107D9F711E08C
:1070D000A4EBB1E001C01D92AD3CB107E1F74FD385
:1070E00030C78ECFF89410926F001092810081E02B
:1070F00085BF15BE47985D9A289A0C9400000895A4
:107100001F920F920FB60F9211242F938F939F937C
:10711000EF93FF9310928500109284008091B40148
:107120009091B501009741F001979093B50180933C
:10713000B401892B09F45D9A8091B6019091B70151
:10714000009741F001979093B7018093B601892B86
:1071500009F4289A8091BA019091BB01019690930D
:10716000BB018093BA01E0E0F0E0859194918F5FDC
:107170009F4F49F08091B8019091B9010196909389
:10718000B9018093B801FF91EF919F918F912F9159
:107190000F900FBE0F901F90189584E08093E90028
:1071A0000DC08091E8008B778093E80003C08EB318
:1071B000882351F08091E80082FFF9CF8091E800A8
:1071C00085FFEFCF8091F1000895982F83E08093A1
:1071D000E9008091E80085FD0DC08091E8008E7780
:1071E0008093E80003C08EB3882369F08091E800A3
:1071F00080FFF9CF9093F1005D9884E690E0909342
:10720000B5018093B40108954F925F926F927F927F
:107210008F929F92AF92BF92CF92DF92EF92FF92A6
:107220000F931F93CF93DF9384E08093E9008091C5
:10723000E80082FF57C2289884E690E09093B70157
:107240008093B601AADF182F853481F48CE49DE188
:107250009093B9018093B80107B600FCFDCFF9996E
:10726000FECF81E180935700E89503C0843519F47F
:1072700094DF8DE00DC28C34E1F38035D1F3843797
:1072800021F484E4A2DF80E003C2813611F489E5B1
:10729000FFC18134B1F481DF182F7FDF90E0880FC8
:1072A000991FAA2797FDA095BA2F312F330F20E001
:1072B000442737FD4095542F822B932BA42BB52BBD
:1072C000B8C1803711F483E5E3C1833549F4C0E0E8
:1072D000D1E089917ADF21E0C730D207D1F7D9C157
:1072E000863521F481E371DF80E3D2C1833731F445
:1072F00087E86BDF85E969DF8EE1CAC18536B9F4BD
:10730000E0E0F0E093E085E090935700E89507B661
:1073100000FCFDCF80935700E89507B600FCFDCF39
:10732000E058FF4FA0E7E030FA0771F7A2CF8237AD
:1073300039F4E1E0F0E089E0809357008491A8C13E
:10734000863439F4E0E0F0E089E0809357008491DE
:107350009FC18E3439F4E3E0F0E089E08093570078
:10736000849196C1813539F4E2E0F0E089E08093C0
:10737000570084918DC1823631F489E526DF80E0A3
:1073800024DF80E885C1823419F0873609F0E5C032
:107390001092B9011092B80100DF082FFEDEF82E1E
:1073A000FCDE682E8554823008F071C1902F80E099
:1073B000CF2DD0E0C82BD92B10926F00173609F0D3
:1073C0004BC081E180935700E895DD24CC24C39421
:1073D0003FC0E090BD01F090BE010091BF0110914F
:1073E000C001B6E46B16D9F4ED2DF0E0EE29FF29CB
:1073F000E4918E2FEADEDD2081F082E090E0A0E0D3
:10740000B0E0E80EF91E0A1F1B1FE092BD01F092CA
:10741000BE010093BF011093C001DC2418C0D80145
:10742000C701B695A7959795879575D5CEDE82E06D
:1074300090E0A0E0B0E0E80EF91E0A1F1B1FE092EA
:10744000BD01F092BE010093BF011093C0012197CE
:10745000209709F0BECF7DC08090BD019090BE0105
:10746000A090BF01B090C00196E4691609F05DC01C
:1074700083E0F40180935700E89507B600FCFDCF48
:1074800054C0F6E46F1661F5772031F1E090BD014C
:10749000F090BE010091BF011091C0017EDED82E98
:1074A000CC24852D90E08C299D29F7010C01409278
:1074B0005700E895112482E090E0A0E0B0E0E80EEB
:1074C000F91E0A1F1B1FE092BD01F092BE0100933E
:1074D000BF011093C00102C060DE582E742423C087
:1074E000E090BD01F090BE010091BF011091C0017C
:1074F00016950795F794E79450DE682FC70113D5CA
:107500008091BD019091BE01A091BF01B091C001D9
:107510000296A11DB11D8093BD019093BE01A09361
:10752000BF01B093C001219704C05524772444249F
:107530004394209709F0A5CF96E4691641F485E0BD
:10754000F40180935700E89507B600FCFDCF8DE06D
:107550003CDE82E080936F009CC0833471F4009124
:10756000BD011091BE0119DE90E021E0F8010C018F
:1075700020935700E89511247CCE833619F5E090CE
:10758000BD01F090BE010091BF011091C00105DE68
:10759000F701E16090E021E00C0120935700E895AD
:1075A000112482E090E0A0E0B0E0E80EF91E0A1F8E
:1075B0001B1FE092BD01F092BE010093BF0110932A
:1075C000C00157CE8D3661F4E091BD01F091BE014E
:1075D00085E080935700E89507B600FCFDCF49CEC3
:1075E000823551F4E091BD01F091BE0105911491F5
:1075F000812FEBDD802F4CC0843421F5E090BD015C
:10760000F090BE010091BF011091C0011695079541
:10761000F794E794C2DD682FC70185D48091BD013E
:107620009091BE01A091BF01B091C0010296A11D31
:10763000B11D8093BD019093BE01A093BF01B09393
:10764000C00117CE843609F5E090BD01F090BE016F
:107650000091BF011091C001D801C701B695A7954F
:107660009795879558D4B1DD82E090E0A0E0B0E036
:10767000E80EF91E0A1F1B1FE092BD01F092BE0129
:107680000093BF011093C00104C08B3111F08FE350
:107690009CDD83E08093E9009091E8008091E80010
:1076A0008E778093E80095FF04C010C08EB38823C6
:1076B000C9F08091E80080FFF9CF8091E8008E77D3
:1076C0008093E80003C08EB3882361F08091E800C6
:1076D00080FFF9CF84E08093E9008091E8008B7708
:1076E0008093E800DF91CF911F910F91FF90EF9071
:1076F000DF90CF90BF90AF909F908F907F906F90D2
:107700005F904F9008959091C501892F8F778132B6
:1077100049F58091C6018032A1F0813219F5913A84
:1077200009F58091E800877F8093E8008CE091E084
:1077300067E070E027D28091E8008B778093E800C3
:107740000895913279F48091E800877F8093E80072
:107750008CE091E067E070E079D28091E8008E776C
:107760008093E800089582E061EC42E0D1D083E0AC
:1077700061E842E1CDD084E060E842E1C9C01F93F6
:10778000209100081092000844B714BE88E10FB69B
:10779000F89480936000109260000FBE80E8E0E0F3
:1077A000F0E00FB6F89480936100E09361000FBEA3
:1077B00031E035BF92E095BF3F9A209A559A809369
:1077C00061001092610047985D9A289A1092890092
:1077D0008AEF8093880090936F0083E0809381000C
:1077E000859194918F5F9F4F11F03093BC01942F3E
:1077F00041FF19C0809109012817A9F08093000862
:10780000789480911301882339F08091BA01909186
:10781000BB018F5E9240C8F3F8941092000881E09B
:10782000809313010CC090FF04C08091BC01882399
:1078300051F493FF09C080910901281729F0809124
:10784000BC01882309F04EDCD4D078941092B901A1
:107850001092B8011EEF20C0D7DC4BD38091B80145
:107860009091B90181549F4110F0109213018091C1
:10787000C1019091C20101969093C2018093C10110
:10788000292F97FF03C0512F591B252F220F28178F
:1078900010F4479801C0479A809113018823E1F6BC
:1078A0008091E00081608093E0001CDC80E090E04B
:1078B0001F910895FA01923049F0933061F09130B0
:1078C000F9F484E191E022E130E01EC086E291E02B
:1078D0002EE330E019C0882329F484E691E024E007
:1078E00030E012C0813029F488E691E02EE130E0EA
:1078F0000BC0823029F488E891E02AE230E004C02D
:1079000080E090E020E030E091838083C901089519
:107910008093E9008091EB0081608093EB001092EE
:10792000ED006093EC004093ED008091EE00881F25
:107930008827881F08958091C50188238CF403C08F
:107940008EB38823B1F08091E80082FFF9CF809157
:10795000E8008B778093E80008958EB3882349F080
:107960008091E80080FFF9CF8091E8008E778093C6
:10797000E8000895EF92FF920F931F9345D04CD0EB
:1079800008ED10E0F80180818F7780838081806826
:10799000808380818F7D808319BC1EBA1092C301C1
:1079A00080EEE82EF12CF70180818B7F8083F80137
:1079B00080818160808380E060E042E0A9DFE1EEC9
:1079C000F0E080818E7F8083E2EEF0E08081816054
:1079D0008083808188608083F70180818E7F8083AF
:1079E000F8018081806180831F910F91FF90EF905B
:1079F0000895E7EDF0E08081816080838AE482BFB2
:107A000081E08093C401B6CFE8EDF0E080818E7F05
:107A100080831092E20008951092DA001092E10043
:107A200008951F920F920FB60F9211242F933F9338
:107A30004F935F936F937F938F939F93AF93BF9376
:107A4000EF93FF938091DA0080FF1BC08091D800F4
:107A500080FF17C08091DA008E7F8093DA008091DA
:107A6000D90080FF0BC080E189BD82E189BD09B4E6
:107A700000FEFDCF81E08EBB3BD203C019BC1EBA15
:107A800037D28091E10080FF17C08091E20080FF33
:107A900013C08091E2008E7F8093E2008091E2002B
:107AA00080618093E2008091D80080628093D8004A
:107AB00019BC85E08EBB1CD28091E10084FF2CC0F4
:107AC0008091E20084FF28C080E189BD82E189BD08
:107AD00009B400FEFDCF8091D8008F7D8093D8003F
:107AE0008091E1008F7E8093E1008091E2008F7EA3
:107AF0008093E2008091E20081608093E2008091B7
:107B0000C301882331F48091E30087FD02C081E046
:107B100001C084E08EBBECD18091E10083FF21C0E5
:107B20008091E20083FF1DC08091E100877F8093F8
:107B3000E10082E08EBB1092C3018091E1008E7F54
:107B40008093E1008091E2008E7F8093E20080913B
:107B5000E20080618093E20080E060E042E0D8DEF5
:107B6000C7D1FF91EF91BF91AF919F918F917F917D
:107B70006F915F914F913F912F910F900FBE0F909A
:107B80001F9018959C014091CB015091CC01461754
:107B9000570718F4F90190E044C06115710511F020
:107BA000AB01F8CF8091E8008E778093E80040E049
:107BB00050E0F0CF8EB3882309F444C0853009F437
:107BC00043C08091E80083FF02C081E00895809166
:107BD000E80082FD31C08091E80080FF22C08091E2
:107BE000F3009091F200782F60E0292F30E0262BEF
:107BF000372B07C081918093F100415050402F5F97
:107C00003F4F4115510519F02830310598F390E0A8
:107C10002830310509F491E08091E8008E77809357
:107C2000E8004115510531F6992321F605C08EB3C0
:107C3000882341F0853041F08091E80082FFF7CF42
:107C400080E0089582E0089583E008959C01611525
:107C5000710529F48091E8008B778093E800F901A1
:107C600026C08EB3882391F1853091F18091E80090
:107C700083FF02C081E008958091E80082FFF1CF88
:107C800006C08091F10081936150704059F02091BD
:107C9000F3008091F200322F20E090E0822B932BB2
:107CA000892B79F78091E8008B778093E800611544
:107CB0007105B9F605C08EB3882341F0853041F0D7
:107CC0008091E80080FFF7CF80E0089582E008957A
:107CD00083E008950F931F93DF93CF9300D0CDB728
:107CE000DEB7E5ECF1E08091F100819381E0ED3CBD
:107CF000F807C9F708DD8091E80083FFE4C08091B0
:107D0000C5019091C601953009F46DC0963040F4DC
:107D1000913081F1913070F0933009F0D4C02AC0D5
:107D2000983009F4A3C0993009F4B2C0963009F034
:107D3000CAC07CC0803809F4C6C0823809F0C3C00C
:107D40008091C90187708093E9008091EB001092C7
:107D5000E9002091E800277F2093E80090E025E0EB
:107D6000969587952A95E1F781708093F10010929E
:107D7000F10087C0882319F0823009F0A4C08F7108
:107D8000823009F0A0C08091C701882331F520918D
:107D9000C901277009F497C02093E9008091EB0096
:107DA00080FF1BC0933021F48091EB00806213C0F0
:107DB0008091EB0080618093EB0081E090E002C055
:107DC000880F991F2A95E2F78093EA001092EA0043
:107DD0008091EB0088608093EB001092E900809125
:107DE000E800877F51C0882309F06DC01091C7015A
:107DF0001F770FB7F8948091E800877F8093E800A1
:107E00009ADD8091E80080FFFCCF8091E3008078CC
:107E1000812B8093E30080688093E300112311F4A9
:107E200082E001C083E08EBB0FBF4DC0805882301E
:107E300008F049C08091C7019091C8016091C901C3
:107E4000AE014F5F5F4F36DDBC01009709F43BC0C8
:107E50008091E800877F8093E80089819A8192DE93
:107E60008091E8008B778093E8002DC0803859F529
:107E70008091E800877F8093E8008091C301809320
:107E8000F1008091E8008E778093E80054DD1BC0FC
:107E90008823C9F49091C7019230A8F48091E8003A
:107EA000877F8093E8009093C30145DD8091C301F3
:107EB000882331F48091E30087FD02C081E001C096
:107EC00084E08EBB50DC8091E80083FF0AC0809183
:107ED000EB0080628093EB008091E800877F8093C5
:107EE000E8000F900F90CF91DF911F910F910895AF
:107EF00008951F938EB3882361F01091E9001092CA
:107F0000E9008091E80083FF01C0E4DE1770109360
:107F1000E9001F910895F999FECF92BD81BDF89AAD
:107F2000992780B50895262FF999FECF1FBA92BDE3
:107F300081BD20BD0FB6F894FA9AF99A0FBE01964A
:107F40000895F894FFCF4341544552494E4100777C
:107F500000080000000000000801120110010200EA
:107F600000084F1B059201000201000109023E00BA
:107F70000201008032090400000102020100052410
:107F800000100104240204052406000107058203F1
:107F90000800FF09040100020A00000007050402AE
:107FA00010000107058302100001040309041E03E9
:107FB000500072006F0020004D00690063007200E5
:107FC0006F002000350056002000200000002A032A
:107FD00053007000610072006B00460075006E0077
:107FE000200045006C0065006300740072006F00A3
:0A7FF0006E006900630073000000DA
:00000001FF
