:100000000C9497000C94BF000C94BF000C94BF009C
:100010000C94BF000C94BF000C94BF000C94BF0064
:100020000C94BF000C94BF000C946B040C94E90476
:100030000C94BF000C94BF000C94BF000C94BF0044
:100040000C94BF000C94BF000C94BF000C94BF0034
:100050000C94BF000C94BF000C94BF000C942104BE
:100060000C94BF000C94BF000C94BF000C94BF0014
:100070000C94BF000C94BF000C94BF000C94BF0004
:100080000C94BF000C94BF000C94BF000C94BF00F4
:100090000C94BF000C94BF000C94BF000C94BF00E4
:1000A0000C94BF000C94BF000C94BF00080B00021E
:1000B0000202000009040000010202000005240001
:1000C0001001052401010104240206052406000193
:1000D0000705810310004009040100020A00000026
:1000E00007050202400000070583024000000403E8
:1000F000090412010002EF0201404F1B06920001A9
:1001000001020301537061726B46756E005370619A
:10011000726B46756E2050726F204D6963726F006E
:10012000070605040100080A0B0C0D091B07112422
:100130001FBECFEFDAE0DEBFCDBF11E0A0E0B1E03F
:10014000E2E0F3E102C005900D92A435B107D9F7C2
:1001500022E0A4E5B1E001C01D92A332B207E1F7AD
:1001600010E0C7E9D0E004C02197FE010E947909A0
:10017000C639D107C9F70E9497070C947F090C94E0
:100180000000FC018091C601882311F13FB7F8946B
:1001900082E08093E9002091F200822F90E018160F
:1001A000190614F481E090E0882339F0289844E699
:1001B0004093C5014091F1004083222339F0209102
:1001C000F200211103C02BE62093E8003FBF089501
:1001D0008FEF9FEF0895CF93DF931F92CDB7DEB7D8
:1001E0006983DC01ED91FC910280F381E02D41E017
:1001F00050E0BE016F5F7F4F09950F90DF91CF9167
:100200000895CF93DF931F92CDB7DEB7FC018485AD
:10021000958597FD08C02FEF3FEF358724870F9016
:10022000DF91CF910895CE0101960E94C100019700
:1002300019F4898190E0F3CF8FEF9FEFF0CF0F9308
:100240001F93CF93DF931F92CDB7DEB78C01FC01D4
:100250008485958597FF0BC0CE0101960E94C10051
:10026000019771F4898190E0F80195878487F801FE
:10027000848595850F90DF91CF911F910F910895FF
:100280008FEF9FEFF1CFFC018485958597FD0BC023
:100290009FB7F89482E08093E9008091F2009FBFBD
:1002A00090E0019608959FB7F89482E08093E9006A
:1002B0008091F2009FBF90E008953FB7F89480913D
:1002C000C1019091C201A091C301B091C40126B5B2
:1002D000A89B05C02F3F19F00196A11DB11D3FBF7E
:1002E000BA2FA92F982F8827BC01CD01620F711D4D
:1002F000811D911D42E0660F771F881F991F4A9547
:10030000D1F70895CF92DF92EF92FF920E945D01A4
:100310006B017C010E945D016C197D098E099F09AA
:10032000683E734081059105A8F3FF90EF90DF9040
:10033000CF9008958093E9008091F200882319F00E
:100340008AE38093E800089583E00C949A01409139
:100350006201509163012091600130916101421767
:100360005307B4F49091E8009570E1F39091E800A0
:1003700092FD19C08093F100809162019091630118
:1003800001968F739927892B19F48EEF8093E800DB
:100390008091620190916301019690936301809333
:1003A000620181E0089580E00895EF92FF920F933B
:1003B0001F93CF93DF93F82E192FE62E042F81E0A1
:1003C000860F880F0E94A70183E00E94A701CF2D0E
:1003D000D12FEC0EFD2EF11CCE15DF05B9F007FF75
:1003E00013C0FE0184910E94A701182F80E00E9493
:1003F000A701812321968111EFCFDF91CF911F912A
:100400000F91FF90EF9008958881EDCF81E0F5CFB7
:10041000DF92EF92FF920F931F93CF93DF93D82E2B
:100420008A01EB017B01E40EF51ECE15DF0559F0C4
:10043000D7FE12C0FE0184910E94A701219681116E
:10044000F4CF0FEF1FEFC801DF91CF911F910F91F4
:10045000FF90EF90DF9008958881EECF2FB7F8944A
:1004600087708093E9009091E800892F807295FF52
:1004700004C09091F20080E4891B2FBF089583E0AF
:100480000E942E0290E008957F928F929F92AF92E9
:10049000BF92CF92DF92EF92FF920F931F93CF9371
:1004A000DF93C82E8B017A018091C601811110C0A3
:1004B0008FEF9FEFDF91CF911F910F91FF90EF9002
:1004C000DF90CF90BF90AF909F908F907F900895D6
:1004D0008091660180FF05C08091E000826080937A
:1004E000E000CE2DDF2DD12C8AEFB82E8C2D877019
:1004F000982E8C2D8072882E8C2D8074782E9AE305
:10050000A92E209719F4DD2009F44EC08C2D0E94ED
:100510002E02811106C0BA94BB2051F20E948201C2
:10052000F0CF8C171D0611F00CF08C2F9FB7F894AC
:100530009092E9002091E80025FD02C09FBFE1CF25
:10054000282F30E0C21BD30B882029F08150A0F067
:100550001092F100FBCFF801C7FC0AC0815050F0A7
:1005600041914093F100FACF44914093F1003196CC
:100570008150D0F7020F131FDD2021F0A092E80078
:10058000D12CDCCF8091E80085FD07C0A092E80067
:10059000DD24D394209791F2F3CF209779F677203A
:1005A00069F2A092E800CACF5D9884E68093650165
:1005B000C70180CFCF93DF93EC0180910C0188239A
:1005C00031F083E00E9444021816190634F081E0ED
:1005D00090E09B838A8380E090E0DF91CF91089543
:1005E000615030F02091F100FC0120830196F8CF9A
:1005F000289884E68093C50108958091580181115F
:100600000DC082E08093540184E0809355011092E4
:1006100057011092560181E08093580184E591E0E2
:1006200008950F931F93CF93DF931F92CDB7DEB73B
:1006300082E0898342E450E06CEA70E080E80E9446
:1006400008020E94FD02DC0112960D911C91011519
:10065000110589F0D801ED91FC910280F381E02D24
:10066000BE016F5F7F4FC801099597FD04C0F80177
:1006700000851185ECCF89810F90DF91CF911F917B
:100680000F91089590E080E0089580E008950F9321
:100690001F93CF93DF93CDB7DEB7C456D1090FB602
:1006A000F894DEBF0FBECDBFFC01DB019C919E5FC5
:1006B0009C939E01295F3F4F8AE5D9011D928A953F
:1006C000E9F788E089838BE08A8322E02C8391E03C
:1006D0009D839E8339E0398764E06A879E879F8780
:1006E0003A8B44E24B8B9C8BA0E0B1E0BE8BAD8B90
:1006F00009E010E0188F0F8B998F3B8F6C8F2F8F35
:1007000098A353E059A387E08CA34DA39EA3B8A759
:10071000AFA3A1E4B0E0BAA7A9A786E08BA74CA736
:100720002DA79EA79FA789AB4AAB2BAB2CAB2DABBC
:100730003FAB48AF59AF9AAF5BAF9CAF2DAF9EAF09
:1007400021963FAF219722964FAF229723965FAF16
:10075000239724962FAF249725966FAF259726963B
:100760009FAF269727969FAF279728969FAF2897EA
:100770002A963FAF2A9745E02B964FAF2B972D96A1
:100780002FAF2D9760E470E02F967FAF6EAF2F975D
:1007900063964FAF639785E264968FAF64976596D3
:1007A0009FAF659766969FAF669767969FAF67976F
:1007B00068963FAF689769964FAF69976B962FAF72
:1007C0006B976D967FAF6EAF6D97A1964FAFA19768
:1007D000A2968FAFA297A3969FAFA397A4969FAF21
:1007E000A497A5965FAFA59792819B839B879F5FF8
:1007F0009A8F9D8F83812C968FAF2C978F5F806807
:100800006A968FAF6A9744E650E0BE016F5F7F4FF4
:1008100080E00E940802CC59DF4F0FB6F894DEBF8B
:100820000FBECDBFDF91CF911F910F91089584E04E
:10083000EEE4F1E0DB0101900D928A95E1F784E0AE
:1008400008951F920F920FB60F9211242F933F938A
:100850008F939F93AF93BF938091BD019091BE0101
:10086000A091BF01B091C0013091BC0123E0230FE2
:100870002D3758F50196A11DB11D2093BC01809321
:10088000BD019093BE01A093BF01B093C0018091C0
:10089000C1019091C201A091C301B091C401019620
:1008A000A11DB11D8093C1019093C201A093C3010A
:1008B000B093C401BF91AF919F918F913F912F91C0
:1008C0000F900FBE0F901F90189526E8230F0296E9
:1008D000A11DB11DD2CF1F920F920FB60F921124FE
:1008E0002F933F934F935F936F937F938F939F9338
:1008F000AF93BF93CF93EF93FF93C091E1008091AB
:10090000E100837F8093E100C3FF0FC01092E900F4
:1009100081E08093EB001092EC0082E38093ED0085
:100920001092C60188E08093F000C2FF1BC083E0F4
:100930000E949A0180916501882341F080916501B0
:10094000815080936501811101C05D9A8091C5013C
:10095000882341F08091C50181508093C5018111A8
:1009600001C0289AC4FF23C08091E2008E7E81607E
:100970008093E2008091E1008F7E8093E10080917E
:1009800066018E7E806180936601FF91EF91CF9129
:10099000BF91AF919F918F917F916F915F914F9197
:1009A0003F912F910F900FBE0F901F901895C0FF91
:1009B000ECCF8091E2008E7E80618093E200809196
:1009C000E1008E7E8093E100809166018E7E8160E1
:1009D000DACF1F920F920FB60F921124CF92DF92AF
:1009E000EF92FF920F931F932F933F934F935F9339
:1009F0006F937F938F939F93AF93BF93EF93FF93E7
:100A0000CF93DF93CDB7DEB76C97DEBFCDBF10922B
:100A1000E9008091E80083FF25C068E0CE0145969B
:100A20000E94F00282EF8093E8008D8987FF39C031
:100A30009091E80090FFFCCF982F907609F034C198
:100A40009E894F89588D2F89F88C911131C080383B
:100A500061F5809167018093F1001092F1008EEFB3
:100A60008093E8006C960FB6F894DEBF0FBECDBF42
:100A7000DF91CF91FF91EF91BF91AF919F918F91B6
:100A80007F916F915F914F913F912F911F910F91A6
:100A9000FF90EF90DF90CF900F900FBE0F901F90C0
:100AA00018959EEF9093E800C7CF1092F100D5CF34
:100AB000913059F48111D3CF4130510581F68091A5
:100AC00067018D7F80936701CACF933049F481110C
:100AD000C6CF4130510519F6809167018260F2CF8F
:100AE000953041F48091E80080FFFCCF206820938E
:100AF000E300B5CF963009F0A9C00B8D1C8D22E024
:100B00001092E9001092630110926201F2122EC05D
:100B100010926101109260010E9411031F8299E0FE
:100B20009983FA8291E09E8390EA98879AEF998759
:100B30002091620130916301275F3F4F3C832B83FB
:100B40008D831092E900109263011092620110935C
:100B500061010093600149E050E0BE016F5F7F4F8B
:100B600080E00E9408020E94110379CF1093610176
:100B7000009360010E94FD02DC0112960D911C9110
:100B80000115110509F451C1D801ED91FC910480C2
:100B9000F581E02DBE016B5E7F4FC801099500977E
:100BA00009F03EC1F80100851185EACFF3E0FF129C
:100BB0000EC08F89882309F440C0823061F440E878
:100BC00062E18DE091E00E94D501811148CF81E280
:100BD0008093EB0047CF813029F440E868E084E05F
:100BE00091E0F1CF833099F70E94FD02DC0112966B
:100BF000ED90FC908E010F5F1F4F6801E114F1042E
:100C000079F0D701ED91FC910680F781E02DB801D4
:100C1000C7010995080F111DF701E084F184EECF9B
:100C2000D8011C92F60101900020E9F73197BF012D
:100C30006C197D0940E0C601C6CF6EEE70E0FB0185
:100C4000449150E080E80E94080209CF973009F4EF
:100C5000BECF983021F481E08093F10000CF99302D
:100C600009F0FDCE837009F0B2CFEEE0F1E081E053
:100C700031E096E32191222371F08093E9003093D3
:100C8000EB00DF0111972C912093EC009093ED0085
:100C90008F5F873079F78EE78093EA001092EA0041
:100CA0008F898093C601DBCE8B8D9C8D1092E900DD
:100CB0001092630110926201909361018093600130
:100CC000898D811192C08E899D89913A49F4813232
:100CD00009F07DCF47E050E065E071E080E0B3CF00
:100CE000913209F074CF833269F48F89988DB0E026
:100CF000A0E08093000190930101A0930201B093C2
:100D00000301ADCE803269F48091E80082FFFCCF10
:100D100067E085E091E00E94F0028BEF8093E800AD
:100D20009ECE823209F09BCE8F8980930C01EEEF2C
:100D3000FFE7859194918B3F9C4D51F1E0E0F8E005
:100D40008091050190910601A0910701B0910801E1
:100D5000803B9440A105B105F1F480910C0180FD28
:100D60001AC0EE3F8AE0F80789F587E797E7918395
:100D70008083809160008093640188E19BE00FB6DE
:100D8000F894A895809360000FBE9093600067CEA2
:100D9000EEEFFAE0D5CF808191818737974709F050
:100DA0005ECEA895809160008861809360008091FC
:100DB000640180936000EE3F2AE0F20789F08091A1
:100DC000FE0A9091FF0A9183808349CE80819181B0
:100DD0008737980751F29093FF0A8093FE0AC5CF98
:100DE0001092FF0A1092FE0A3ACE0E94FD02DC0128
:100DF00012960D911C910115110509F4E8CED80148
:100E0000ED91FC910190F081E02DBE016B5E7F4F72
:100E1000C8010995811123CEF80100851185EBCF1A
:100E2000181619060CF41BCED2CEF1E0FF12BECE7E
:100E300062EF70E004CFCF93DF931092CA0110925B
:100E4000C90188EE93E0A0E0B0E08093CB019093DD
:100E5000CC01A093CD01B093CE0184E391E09093B7
:100E6000C8018093C7018FEF9FEF9093D4018093C7
:100E7000D30182E080931B0280931C0281E292E006
:100E800090931E0280931D021092200210921F0266
:100E900086E491E0909318028093170280E8809393
:100EA000210281E8809322020E94FD02FC018181DF
:100EB00090911B02482F490F5527551F4830510567
:100EC0009CF5A281B381109709F527E132E03383C5
:100ED000228320812093190280931A0280911C02A0
:100EE000820F808320911D02A22FB0911E028A2FB3
:100EF000821B8917C8F481813D91C82FD0E0C35F60
:100F0000DE4F38838F5F8183F2CFD90118962D9100
:100F10003C91199721153105C1F727E132E0199667
:100F20003C932E931897D5CFDF91CF910895CF930F
:100F3000DF93CDB7DEB728970FB6F894DEBF0FBEAC
:100F4000CDBF789484B5826084BD84B5816084BD52
:100F500085B5826085BD85B5816085BD80916E0057
:100F6000816080936E001092810080918100826088
:100F700080938100809181008160809381008091C5
:100F800080008160809380008091910082608093D6
:100F900091008091910081608093910080919000F8
:100FA0008160809390008091C10084608093C10033
:100FB0008091C10082608093C1008091C1008160F6
:100FC0008093C1008091C30081608093C3008091B1
:100FD000C00082608093C0008091C20081608093D5
:100FE000C20080917A00846080937A0080917A00B8
:100FF000826080937A0080917A00816080937A0089
:1010000080917A00806880937A001092C6011092D5
:101010006701109266018091D70081608093D700AC
:1010200080EA8093D80089B5806189BD89B58260E6
:1010300089BD09B400FEFDCF0E9482018091D800D5
:101040008F7C80618093D8008091E000807F8093C6
:10105000E0008091E1008E7E8093E1008DE080933E
:10106000E200559A209A22242A9443E0342E412CFF
:10107000512C82E291E09E838D8388E6882E81E068
:10108000982E90EAA92E91E0B92E2EEAC22E21E0E8
:10109000D22E32E9632E31E0732EA6E7B1E0B88795
:1010A000AF83F12CE12CAD81BE81EC911296BE8311
:1010B000AD83E23108F0E251F0E0E05EFE4FE491F2
:1010C00090917B008E2F880F880F80729F7D892BD7
:1010D00080937B00E770E064E0937C0080917A006D
:1010E000806480937A0080917A0086FDFCCF009125
:1010F000780010917900F601118300839801A1E82E
:10110000BFEF0E946A09A20191010E941A092158A9
:101110003F4F4F4F5F4FD5012D933C93F30180819B
:101120009181081B190B17FF03C011950195110937
:101130000B3011058CF02FB7F8948091BD01909180
:10114000BE01A091BF01B091C0012FBFEF81F88512
:1011500080839183A283B3832FB7F8948091BD01DC
:101160009091BE01A091BF01B091C0012FBFEF814E
:10117000F8854191519161917191F887EF83841BBA
:10118000950BA60BB70B8C329140A105B10508F069
:101190004EC021E02093040180910401882359F17D
:1011A000D5010D911C91F4018081918180179107E7
:1011B00011F1F701EC5EFE4F8081FBE0F98321EB3A
:1011C0002A838B830C8380911A0244E050E0BE0195
:1011D0006F5F7F4F8F5F0E94440280911A028F5F82
:1011E0000E949A01D6018D919C91F3019183808395
:1011F000D4010D931C93B2E08B0E911CE2E0AE0E75
:10120000B11CF2E0CF0ED11C22E0620E711C82E014
:10121000E80EF11C9EE0E916F10409F044CFA0E0CD
:10122000B0E0AB2B09F425CF0E94000022CF109232
:101230000401B2CF052E97FB1EF400940E943109E1
:1012400057FD07D00E94390907FC03D04EF40C94D7
:10125000310950954095309521953F4F4F4F5F4F45
:10126000089590958095709561957F4F8F4F9F4F12
:101270000895A1E21A2EAA1BBB1BFD010DC0AA1FD7
:10128000BB1FEE1FFF1FA217B307E407F50720F0EF
:10129000A21BB30BE40BF50B661F771F881F991F6A
:1012A0001A9469F760957095809590959B01AC01B3
:1012B000BD01CF010895A29FB001B39FC001A39FBC
:1012C000700D811D1124911DB29F700D811D11247F
:1012D000911D08950E945B09332312F48A1B9B0B16
:1012E0000C9474090E945B09B7FF0895821B930B4D
:1012F0000895EE0FFF1F0590F491E02D0994F894E6
:02130000FFCF1D
:10130200FFFFFFFF0100E100000000000000C180BC
:101312008100000002000300040005000600200016
:101322001A001A0019001800120013001400150008
:1013320000000000EB00DA023F02A40143010101B8
:101342001F010000000045034703420317044D49F3
:04135200444900000A
:00000001FF
