:100000000C9498000C94C0000C94C0000C94C00098
:100010000C94C0000C94C0000C94C0000C94C00060
:100020000C94C0000C94C0000C946C040C94EA0472
:100030000C94C0000C94C0000C94C0000C94C00040
:100040000C94C0000C94C0000C94C0000C94C00030
:100050000C94C0000C94C0000C94C0000C942204BA
:100060000C94C0000C94C0000C94C0000C94C00010
:100070000C94C0000C94C0000C94C0000C94C00000
:100080000C94C0000C94C0000C94C0000C94C000F0
:100090000C94C0000C94C0000C94C0000C94C000E0
:1000A0000C94C0000C94C0000C94C000080B00021B
:1000B0000202000009040000010202000005240001
:1000C0001001052401010104240206052406000193
:1000D0000705810310004009040100020A00000026
:1000E00007050202400000070583024000000403E8
:1000F000090412010002EF02014041233680000191
:100100000102030141726475696E6F204C4C43001B
:1001100041726475696E6F204C656F6E6172646FB9
:1001200000070605040100080A0B0C0D09001C0756
:1001300011241FBECFEFDAE0DEBFCDBF11E0A0E09B
:10014000B1E0ECE0F3E102C005900D92A236B107F8
:10015000D9F722E0A2E6B1E001C01D92A133B207B7
:10016000E1F710E0C8E9D0E004C02197FE010E9449
:100170007E09C739D107C9F70E9498070C948409F2
:100180000C940000FC018091D401882311F13FB749
:10019000F89482E08093E9002091F200822F90E0B1
:1001A0001816190614F481E090E0882339F0289895
:1001B00044E64093D3014091F1004083222339F07B
:1001C0002091F200211103C02BE62093E8003FBFED
:1001D00008958FEF9FEF0895CF93DF931F92CDB7D0
:1001E000DEB76983DC01ED91FC910280F381E02DA3
:1001F00041E050E0BE016F5F7F4F09950F90DF91A6
:10020000CF910895CF93DF931F92CDB7DEB7FC0156
:100210008485958597FD08C02FEF3FEF35872487AC
:100220000F90DF91CF910895CE0101960E94C200F8
:10023000019719F4898190E0F3CF8FEF9FEFF0CF12
:100240000F931F93CF93DF931F92CDB7DEB78C012F
:10025000FC018485958597FF0BC0CE0101960E9415
:10026000C200019771F4898190E0F8019587848735
:10027000F801848595850F90DF91CF911F910F91A3
:1002800008958FEF9FEFF1CFFC018485958597FD51
:100290000BC09FB7F89482E08093E9008091F20050
:1002A0009FBF90E0019608959FB7F89482E08093F5
:1002B000E9008091F2009FBF90E008953FB7F89465
:1002C0008091CF019091D001A091D101B091D20144
:1002D00026B5A89B05C02F3F19F00196A11DB11DA1
:1002E0003FBFBA2FA92F982F8827BC01CD01620FDD
:1002F000711D811D911D42E0660F771F881F991F98
:100300004A95D1F70895CF92DF92EF92FF920E9423
:100310005E016B017C010E945E016C197D098E09F2
:100320009F09683E734081059105A8F3FF90EF9007
:10033000DF90CF9008958093E9008091F2008823A8
:1003400019F08AE38093E800089583E00C949B0100
:10035000409170015091710120916E0130916F01B7
:1003600042175307B4F49091E8009570E1F390912F
:10037000E80092FD19C08093F10080917001909186
:10038000710101968F739927892B19F48EEF809351
:10039000E800809170019091710101969093710134
:1003A0008093700181E0089580E00895EF92FF92BC
:1003B0000F931F93CF93DF93F82E192FE62E042F60
:1003C00081E0860F880F0E94A80183E00E94A801A7
:1003D000CF2DD12FEC0EFD2EF11CCE15DF05B9F07F
:1003E00007FF13C0FE0184910E94A801182F80E02E
:1003F0000E94A801812321968111EFCFDF91CF9137
:100400001F910F91FF90EF9008958881EDCF81E0CB
:10041000F5CFDF92EF92FF920F931F93CF93DF936D
:10042000D82E8A01EB017B01E40EF51ECE15DF0507
:1004300059F0D7FE12C0FE0184910E94A8012196B6
:100440008111F4CF0FEF1FEFC801DF91CF911F9102
:100450000F91FF90EF90DF9008958881EECF2FB736
:10046000F89487708093E9009091E800892F80725A
:1004700095FF04C09091F20080E4891B2FBF08957E
:1004800083E00E942F0290E008957F928F929F92C6
:10049000AF92BF92CF92DF92EF92FF920F931F9392
:1004A000CF93DF93C82E8B017A018091D401811103
:1004B00010C08FEF9FEFDF91CF911F910F91FF90B1
:1004C000EF90DF90CF90BF90AF909F908F907F90F4
:1004D00008958091740180FF05C08091E0008260E2
:1004E0008093E000CE2DDF2DD12C8AEFB82E8C2DFD
:1004F0008770982E8C2D8072882E8C2D8074782E8B
:100500009AE3A92E209719F4DD2009F44EC08C2D12
:100510000E942F02811106C0BA94BB2051F20E94A2
:100520008301F0CF8C171D0611F00CF08C2F9FB7B4
:10053000F8949092E9002091E80025FD02C09FBF49
:10054000E1CF282F30E0C21BD30B882029F0815047
:10055000A0F01092F100FBCFF801C7FC0AC0815057
:1005600050F041914093F100FACF44914093F10053
:1005700031968150D0F7020F131FDD2021F0A09299
:10058000E800D12CDCCF8091E80085FD07C0A09267
:10059000E800DD24D394209791F2F3CF209779F6E9
:1005A000772069F2A092E800CACF5D9884E6809334
:1005B0007301C70180CFCF93DF93EC0180910C01D1
:1005C000882331F083E00E9445021816190634F0A2
:1005D00081E090E09B838A8380E090E0DF91CF917F
:1005E0000895615030F02091F100FC0120830196C4
:1005F000F8CF289884E68093D3010895809166010E
:1006000081110DC082E08093620184E080936301D8
:10061000109265011092640181E08093660182E688
:1006200091E008950F931F93CF93DF931F92CDB75F
:10063000DEB782E0898342E450E06CEA70E080E853
:100640000E9409020E94FE02DC0112960D911C918B
:100650000115110589F0D801ED91FC910280F3811B
:10066000E02DBE016F5F7F4FC801099597FD04C063
:10067000F80100851185ECCF89810F90DF91CF9132
:100680001F910F91089590E080E0089580E0089513
:100690000F931F93CF93DF93CDB7DEB7C456D10925
:1006A0000FB6F894DEBF0FBECDBFFC01DB019C91FD
:1006B0009E5F9C939E01295F3F4F8AE5D9011D9261
:1006C0008A95E9F788E089838BE08A8322E02C838E
:1006D00091E09D839E8339E0398764E06A879E8735
:1006E0009F873A8B44E24B8B9C8BA0E0B1E0BE8BA2
:1006F000AD8B09E010E0188F0F8B998F3B8F6C8FBB
:100700002F8F98A353E059A387E08CA34DA39EA3FA
:10071000B8A7AFA3A1E4B0E0BAA7A9A786E08BA7CA
:100720004CA72DA79EA79FA789AB4AAB2BAB2CABA1
:100730002DAB3FAB48AF59AF9AAF5BAF9CAF2DAF7E
:100740009EAF21963FAF219722964FAF22972396D7
:100750005FAF239724962FAF249725966FAF2597E9
:1007600026969FAF269727969FAF279728969FAFED
:1007700028972A963FAF2A9745E02B964FAF2B97A5
:100780002D962FAF2D9760E470E02F967FAF6EAF60
:100790002F9763964FAF639785E264968FAF649708
:1007A00065969FAF659766969FAF669767969FAF72
:1007B000679768963FAF689769964FAF69976B9652
:1007C0002FAF6B976D967FAF6EAF6D97A1964FAFC2
:1007D000A197A2968FAFA297A3969FAFA397A49637
:1007E0009FAFA497A5965FAFA59792819B839B87A8
:1007F0009F5F9A8F9D8F83812C968FAF2C978F5FF1
:1008000080686A968FAF6A9744E650E0BE016F5FDA
:100810007F4F80E00E940902CC59DF4F0FB6F89459
:10082000DEBF0FBECDBFDF91CF911F910F91089515
:1008300084E0ECE5F1E0DB0101900D928A95E1F7AF
:1008400084E008951F920F920FB60F9211242F93F8
:100850003F938F939F93AF93BF938091CB019091E0
:10086000CC01A091CD01B091CE013091CA0123E01D
:10087000230F2D3758F50196A11DB11D2093CA01F4
:100880008093CB019093CC01A093CD01B093CE0186
:100890008091CF019091D001A091D101B091D2016E
:1008A0000196A11DB11D8093CF019093D001A0931B
:1008B000D101B093D201BF91AF919F918F913F91A0
:1008C0002F910F900FBE0F901F90189526E8230FC1
:1008D0000296A11DB11DD2CF1F920F920FB60F929B
:1008E00011242F933F934F935F936F937F938F9335
:1008F0009F93AF93BF93CF93EF93FF93C091E1008A
:100900008091E100837F8093E100C3FF0FC01092CC
:10091000E90081E08093EB001092EC0082E3809389
:10092000ED001092D40188E08093F000C2FF1BC05C
:1009300083E00E949B0180917301882341F08091A4
:100940007301815080937301811101C05D9A809180
:10095000D301882341F08091D30181508093D3014A
:10096000811101C0289AC4FF23C08091E2008E7ECD
:1009700081608093E2008091E1008F7E8093E100AE
:10098000809174018E7E806180937401FF91EF915C
:10099000CF91BF91AF919F918F917F916F915F9117
:1009A0004F913F912F910F900FBE0F901F90189570
:1009B000C0FFECCF8091E2008E7E80618093E200E8
:1009C0008091E1008E7E8093E100809174018E7EA3
:1009D0008160DACF1F920F920FB60F921124CF923F
:1009E000DF92EF92FF920F931F932F933F934F93BA
:1009F0005F936F937F938F939F93AF93BF93EF9387
:100A0000FF93CF93DF93CDB7DEB76C97DEBFCDBF3B
:100A10001092E9008091E80083FF25C068E0CE01D4
:100A200045960E94F10282EF8093E8008D8987FF4E
:100A300039C09091E80090FFFCCF982F907609F094
:100A400034C19E894F89588D2F89F88C911131C0FE
:100A5000803861F5809175018093F1001092F1006A
:100A60008EEF8093E8006C960FB6F894DEBF0FBE51
:100A7000CDBFDF91CF91FF91EF91BF91AF919F914A
:100A80008F917F916F915F914F913F912F911F9126
:100A90000F91FF90EF90DF90CF900F900FBE0F90CF
:100AA0001F9018959EEF9093E800C7CF1092F10029
:100AB000D5CF913059F48111D3CF4130510581F612
:100AC000809175018D7F80937501CACF933049F471
:100AD0008111C6CF4130510519F6809175018260B0
:100AE000F2CF953041F48091E80080FFFCCF206880
:100AF0002093E300B5CF963009F0A9C00B8D1C8D73
:100B000022E01092E9001092710110927001F2122D
:100B10002EC010926F0110926E010E9412031F826C
:100B200099E09983FA8291E09E8390EA98879AEF00
:100B300099872091700130917101275F3F4F3C836D
:100B40002B838D831092E900109271011092700135
:100B500010936F0100936E0149E050E0BE016F5F9A
:100B60007F4F80E00E9409020E94120379CF109308
:100B70006F0100936E010E94FE02DC0112960D913E
:100B80001C910115110509F451C1D801ED91FC9199
:100B90000480F581E02DBE016B5E7F4FC801099591
:100BA000009709F03EC1F80100851185EACFF3E016
:100BB000FF120EC08F89882309F440C0823061F48F
:100BC00040E860E180E191E00E94D601811148CFC8
:100BD00081E28093EB0047CF813029F440E86BE05D
:100BE00084E091E0F1CF833099F70E94FE02DC01AE
:100BF0001296ED90FC908E010F5F1F4F6801E1147B
:100C0000F10479F0D701ED91FC910680F781E02D98
:100C1000B801C7010995080F111DF701E084F1849F
:100C2000EECFD8011C92F60101900020E9F7319730
:100C3000BF016C197D0940E0C601C6CF6EEE70E0C1
:100C4000FB01449150E080E80E94090209CF9730EF
:100C500009F4BECF983021F481E08093F10000CFF9
:100C6000993009F0FDCE837009F0B2CFEEE0F1E0EB
:100C700081E031E096E32191222371F08093E90035
:100C80003093EB00DF0111972C912093EC009093AF
:100C9000ED008F5F873079F78EE78093EA0010923E
:100CA000EA008F898093D401DBCE8B8D9C8D1092CE
:100CB000E900109271011092700190936F0180937E
:100CC0006E01898D811192C08E899D89913A49F476
:100CD000813209F07DCF47E050E065E071E080E0CF
:100CE000B3CF913209F074CF833269F48F89988D34
:100CF000B0E0A0E08093000190930101A093020175
:100D0000B0930301ADCE803269F48091E80082FF98
:100D1000FCCF67E085E091E00E94F1028BEF8093C9
:100D2000E8009ECE823209F09BCE8F8980930C0121
:100D3000EEEFFFE7859194918B3F9C4D51F1E0E000
:100D4000F8E08091050190910601A0910701B09112
:100D50000801803B9440A105B105F1F480910C019C
:100D600080FD1AC0EE3F8AE0F80789F587E797E72C
:100D700091838083809160008093720188E19BE081
:100D80000FB6F894A895809360000FBE9093600012
:100D900067CEEEEFFAE0D5CF808191818737974714
:100DA00009F05ECEA8958091600088618093600014
:100DB0008091720180936000EE3F2AE0F20789F093
:100DC0008091FE0A9091FF0A9183808349CE8081B1
:100DD00091818737980751F29093FF0A8093FE0A1A
:100DE000C5CF1092FF0A1092FE0A3ACE0E94FE0270
:100DF000DC0112960D911C910115110509F4E8CE44
:100E0000D801ED91FC910190F081E02DBE016B5E67
:100E10007F4FC8010995811123CEF8010085118506
:100E2000EBCF181619060CF41BCED2CEF1E0FF1250
:100E3000BECE62EF70E004CFCF93DF931092D80163
:100E40001092D70188EE93E0A0E0B0E08093D90142
:100E50009093DA01A093DB01B093DC0182E491E08E
:100E60009093D6018093D5018FEF9FEF9093E2018D
:100E70008093E10182E08093290280932A028FE22D
:100E800092E090932C0280932B0210922E021092EB
:100E90002D0284E591E0909326028093250280E85C
:100EA00080932F0281E8809330020E94FE02FC01B1
:100EB000818190912902482F490F5527551F4830AD
:100EC00051059CF5A281B381109709F525E232E026
:100ED00033832283208120932702809328028091EC
:100EE0002A02820F808320912B02A22FB0912C0224
:100EF0008A2F821B8917C8F481813D91C82FD0E0C9
:100F0000C35FDE4F38838F5F8183F2CFD90118969C
:100F10002D913C91199721153105C1F725E232E059
:100F200019963C932E931897D5CFDF91CF910895C2
:100F3000CF93DF93CDB7DEB728970FB6F894DEBF17
:100F40000FBECDBF789484B5826084BD84B58160C6
:100F500084BD85B5826085BD85B5816085BD809184
:100F60006E00816080936E001092810080918100FC
:100F700082608093810080918100816080938100F4
:100F800080918000816080938000809191008260D8
:100F90008093910080919100816080939100809175
:100FA00090008160809390008091C1008460809364
:100FB000C1008091C10082608093C1008091C10016
:100FC00081608093C1008091C30081608093C300E1
:100FD0008091C00082608093C0008091C2008160D7
:100FE0008093C20080917A00846080937A0080911F
:100FF0007A00826080937A0080917A008160809389
:101000007A0080917A00806880937A001092D401EF
:1010100010927501109274018091D70081608093C5
:10102000D70080EA8093D80089B5806189BD89B5F1
:10103000826089BD09B400FEFDCF0E9483018091CA
:10104000D8008F7C80618093D8008091E000807F01
:101050008093E0008091E1008E7E8093E1008DE03E
:101060008093E200559A209A22242A9443E0342E59
:10107000412C512C80E391E09E838D8386E7882E5E
:1010800081E0982E9EEAA92E91E0B92E2CEBC22E7B
:1010900021E0D22E30EA632E31E0732EA4E8B1E0D5
:1010A000B887AF83F12CE12CAD81BE81EC91129613
:1010B000BE83AD83E23108F0E251F0E0EF5DFE4F18
:1010C000E49190917B008E2F880F880F80729F7D16
:1010D000892B80937B00E770E064E0937C00809133
:1010E0007A00806480937A0080917A0086FDFCCF3C
:1010F0000091780010917900F60111830083980126
:10110000A1E8BFEF0E946F09A20191010E941F098F
:1011100021583F4F4F4F5F4FD5012D933C93F30123
:1011200080819181081B190B17FF03C01195019550
:1011300011090B3011058CF02FB7F8948091CB0179
:101140009091CC01A091CD01B091CE012FBFEF8144
:10115000F88580839183A283B3832FB7F89480911D
:10116000CB019091CC01A091CD01B091CE012FBFC8
:10117000EF81F8854191519161917191F887EF83E9
:10118000841B950BA60BB70B8C329140A105B105C2
:1011900008F052C021E020930401809104018823CB
:1011A00079F1D5010D911C91F40180819181801715
:1011B000910731F1F701EE5DFE4F9081F701EC5E92
:1011C000FE4F8081806BFBE0F9838A839B830C83D5
:1011D0008091280244E050E0BE016F5F7F4F8F5F37
:1011E0000E944502809128028F5F0E949B01D601D8
:1011F0008D919C91F30191838083D4010D931C9375
:10120000B2E08B0E911CE2E0AE0EB11CF2E0CF0E0C
:10121000D11C22E0620E711C82E0E80EF11C9EE0FF
:10122000E916F10409F040CFA0E0B0E0AB2B09F4DF
:1012300021CF0E9400001ECF10920401AECF052ED8
:1012400097FB1EF400940E94360957FD07D00E94B8
:101250003E0907FC03D04EF40C9436095095409596
:10126000309521953F4F4F4F5F4F08959095809552
:10127000709561957F4F8F4F9F4F0895A1E21A2E71
:10128000AA1BBB1BFD010DC0AA1FBB1FEE1FFF1F2A
:10129000A217B307E407F50720F0A21BB30BE40B7A
:1012A000F50B661F771F881F991F1A9469F76095C1
:1012B0007095809590959B01AC01BD01CF0108957B
:1012C000A29FB001B39FC001A39F700D811D112487
:1012D000911DB29F700D811D1124911D08950E94D2
:1012E0006009332312F48A1B9B0B0C9479090E942A
:1012F0006009B7FF0895821B930B0895EE0FFF1F3F
:0C1300000590F491E02D0994F894FFCFC3
:10130C00FFFFFFFF0100E100000000000000C180B2
:10131C00810000000100010001000100010001003A
:10132C000100010002000300040005000600070094
:10133C001A00190018001200130014001500000008
:10134C000000EC00DB024002A50144010201200177
:10135C000000000046034803430318044D49444968
:02136C0000007F
:00000001FF
